:1000000000000020950B0000F9080000F90800002E
:10001000F9080000F9080000F9080000F9080000DC
:10002000F9080000F9080000F9080000F9080000CC
:10003000F9080000F9080000F90800000D090000A7
:10004000F9080000F9080000F9080000F9080000AC
:10005000F9080000F9080000F9080000F90800009C
:10006000F9080000F9080000F9080000F90800008C
:10007000F9080000F9080000F9080000F90800007C
:10008000F9080000F9080000F9080000F90800006C
:10009000F9080000F9080000F9080000F90800005C
:1000A000F9080000F9080000F9080000F90800004C
:1000B000F9080000AD080000F9080000F908000088
:1000C000F9080000F9080000F9080000F90800002C
:1000D000F9080000F9080000F9080000F90800001C
:1000E000F9080000F9080000F9080000F90800000C
:1000F000F9080000F9080000F9080000F9080000FC
:10010000F9080000F9080000F9080000F9080000EB
:10011000F9080000F9080000F9080000F9080000DB
:10012000F9080000F9080000F9080000F9080000CB
:10013000F9080000F9080000F9080000F9080000BB
:10014000F9080000F9080000F9080000F9080000AB
:10015000F9080000F9080000F9080000F90800009B
:10016000F9080000A9280000F9080000F9080000BB
:10017000F9080000F9080000F9080000F90800007B
:10018000F9080000F9080000F9080000F90800006B
:10019000F9080000F9080000F9080000F90800005B
:1001A000F9080000F9080000F9080000F90800004B
:0C01B000F9080000F9080000F908000040
:10040000FFFFFFFFFFFFFFFFFFFFFFFF7EFBFFFF81
:100420002DE9F04133B140F2E634A0424CDD40F218
:10043000E73046E042F20E74A04240DC324CA0426B
:10044000B8BF40F2E73044DA4FF0010C0FFA81F800
:100450002E4D4FEA880E05EB0E075E1EFF24890025
:100460000E2E05F82840C9B27C70BC70FC7004D810
:10047000274E4C1CF35C6B54E1B278BBC0204B1C84
:100480006854DBB2BCF1000F01D0BF21E9543AB18E
:10049000013A964415F80E3003F07F0305F80E304C
:1004A0001C4C1A48A36843F01003A360082100F015
:1004B0007DFC636843F010036360BDE8F08142F2A5
:1004C0000F704FF0000CC1E710F1620FB8BF63204E
:1004D000BADB0028F5DA404280B2B5E70C4E0E4F89
:1004E00087FB0034C317C3EBA40303EB8304A0EB27
:1004F000440000B24C1C305C685418B2E3B2194698
:100500000028EDD1BEE700BF1AFCFFFF0080FF1FEF
:10051000589D0000C0F00F406766666672B60D4BCE
:100520000D4A9B6812684FF0E021D1F8041D62B6B5
:10053000490102D5322B88BF01320848C3F58C33FC
:1005400003F23F13A0FB03131B094FF47A7000FB67
:100550000230704710E000E06C8AFF1F398EE338EC
:1005600038B50546FFF7DAFF044695B1FFF7D6FF29
:10057000001BB0F57A7FF9D3013D09D0FFF7CEFF1C
:1005800004F57A74001BB0F57A7FEFD3013DF5D105
:1005900038BD38BD00EB4000C00001D00138FDD1AE
:1005A000704700BFF8B5104C9DF824600F4D9DF8C2
:1005B00018C09DF81CE09DF8207084F803C084F8F2
:1005C00002E067702670AE68E07146F01006A17117
:1005D0002046AE6008212371627100F0E7FB6B6872
:1005E00043F010036B60F8BD0080FF1FC0F00F40A8
:1005F000022900D814E7704710B50B4B0B4C53F889
:10060000100F82B059686B4603C3A36843F0100310
:10061000A3606846082100F0C9FB636843F010033B
:10062000636002B010BD00BF589D0000C0F00F40D5
:100630002B4B2C4AF0B400265C6860F31F66C04365
:1006400060F3174661F30F2644F02004C94361F3B9
:1006500007065C60013AFDD19968234A41F0200108
:100660009960013AFDD120214FF000424FF45250E1
:1006700049F6706710E05D6845F020055D60013C5B
:10068000FDD19C6844F020049C603C46013CFDD1B7
:1006900001394FEA520214D032420446EBD15C6871
:1006A00044F020045C600446013CFDD19C6844F0A9
:1006B00020049C600446013CFDD101394FEA5202FE
:1006C000EAD1074B596841F020014FF4525259606A
:1006D000013AFDD19A6842F020029A60F0BC70475E
:1006E00080F00F40C04B0300E0A501002DE9F0476A
:1006F000DFF874A0C2F30C0284B042F000420AEAB0
:1007000041318006114300F0E0508DF806309DF82D
:1007100030909DF834809DF838C09DF83CE09DF8FD
:1007200040709DF844609DF848509DF84C408DF80D
:10073000079008430023ADF8043000908DF808803E
:100740008DF809C08DF80AE08DF80B708DF80C60FB
:100750008DF80D508DF80E4004AB13E90F0000F03A
:1007600023FD04B0BDE8F08700E0FF03F0B585B0DD
:1007700000909DF828C09DF82CE09DF830709DF801
:1007800034609DF838509DF83C408DF808300020CA
:100790008DF806108DF807208DF809C08DF80AE055
:1007A0008DF80B708DF80C608DF80D508DF80E40A3
:1007B000ADF8040004AB13E90F0000F0F5FC05B040
:1007C000F0BD00BF2DE9F047314C324D0FCC8CB05D
:1007D00005AE0FC694E807002C886B8886E80700F2
:1007E00098B203F009F82C4903F012F9C4F38D0410
:1007F000814604AE0DF102070DF12C0856F8040FE6
:10080000264903F051F8264903F04EF8494603F013
:100810004BF8244903F0FCF803F0BCF9464527F8EF
:10082000020FEBD1BDF804C02F79BDF810E01E4EC9
:1008300001A8002112E04388C3EB090386FB03A251
:10084000C2EBE3734B449BB29C4202D9444538BF90
:10085000CFB20131072900F1020012D08BB2B0F8FB
:10086000009091B130F8022CC9EB020286FB02A87D
:10087000A8EBE2724A44062B1FFA82F8DBD17445DA
:10088000E4D82F710CB0BDE8F087E046D3E700BF95
:10089000709D0000008AFF1F0000CE42AE4751400D
:1008A000A410A843CDCCE44156555555F0B5104F92
:1008B00085B03D6B0024012602E00134102C14D0D9
:1008C00025FA04F3DB07F8D5E1B2684600F0E4FB53
:1008D000009A084B13405B0B00933B6B06FA04F243
:1008E00001341343102C3B63EAD105B0F0BD00BFC7
:1008F00000400240FF1F007C684620F007018D4643
:1009000001B45DF8040B8546704700BF684620F0CF
:100910000701054A8D4601B413685DF8040B0133E5
:1009200013608546704700BF6C8AFF1FE2B141EA41
:10093000000313F0030F07D1032A05D951F8043B34
:1009400040F8043B043AF1E7DB0707D4012A05D954
:1009500031F8023B20F8023B023AE7E711F8013B8D
:1009600000F8013B013AE1E7704700BF884201D03F
:1009700002B1DBE7704700BF10B50C4C24B913E09F
:1009800070B9A3688BB10C34216860680029F7D076
:100990008142A268F7D0002AF5D0FFF7C7FFF2E73F
:1009A000A268002AEFD0F8E710BD10BDC8AA000069
:1009B000104A114BD21A0AD0002013F0030107D1BC
:1009C000032A05D9043A43F8041B002AF5D17047DD
:1009D00013F0010107D1012A05D0023A23F8021BC6
:1009E000002AEAD1F3E7013A03F8010B002AE4D127
:1009F000EDE700BFA894FF1F008AFF1F4FF0E02122
:100A00003448354A354B70B4C1F8080D41F2440101
:100A10004CF22050324CD0814DF628164FF4E97537
:100A2000D68141F2380015805C501A582D4942F4A5
:100A3000F0521A508B781A0703D58B7843F00803CD
:100A40008B70264A2849294B294841F244044FF02B
:100A50008975155141F204060625945944F48034F1
:100A60009451146844F4402414608A6C22F080721B
:100A700022F4E0628A64CA6C22F0807222F4E0629E
:100A8000CA641A7A02F0F10242F0040225211A72B5
:100A90001D705970DA7802F01F0242F0C002802106
:100AA000DA7001701A7B072102F0FE021A731971C5
:100AB0001A79002142F040021A711A46597193794D
:100AC000DB06FCD5094A937913F00C0FFBD170BCFF
:100AD000704700BF00000000002005400070044087
:100AE0000000330100D00740009004400040064061
:100AF0000050064080F31188704700BFF0B51D4AD2
:100B00001D4B92F805E01D4D1D4F1E4C1E481F4900
:100B10001F4E0EF0E00E82F805E092F804E00EF0B1
:100B2000F80E82F804E01A7802F08C0242F05002CB
:100B30001A705A7802F09C0242F040025A7093F800
:100B400002E000220EF0E60E83F802E03A7085F82B
:100B5000492385F81423636923F003036361436920
:100B6000072423F0C00343614E600C6082F31188B8
:100B700062B6F0BD00F0074000D0074000E100E0A1
:100B800000E0074040F00F4080F00F4010E000E030
:100B90003F19010008B5FFF731FF0C4B184600283C
:100BA00007D0854681B04FF000006FEA000000904A
:100BB00001B0FFF7FDFEFFF7DFFEFFF79FFF044BDD
:100BC00000221A6004F062F9FEE700BF0000002076
:100BD0006C8AFF1F1038C0B2430900F160429B00CD
:100BE00002F5614203F1604303F5614382F80013AB
:100BF000196800F01F00012282400A431A60704702
:100C0000704700BF704700BF0120704708B504F06F
:100C10001DFC162303604FF0FF3008BD08B504F03B
:100C200015FC16230360FEE770B5161E07DD0C46A3
:100C30008D19AFF3008004F8010BAC42F9D13046B6
:100C400070BD00BF70B5161E07DD0C468D1914F877
:100C5000010BAFF30080AC42F9D1304670BD00BF4C
:100C60000A4A08B5136873B118446946884202D825
:100C70001060184608BD04F0E9FB0C2303604FF038
:100C8000FF33184608BD024B1360EDE7748AFF1F5F
:100C9000CC94FF1F4FF0FF30704700BF4FF400535C
:100CA0004B600020704700BF012070470020704754
:100CB0000EB44FF0FF3003B0704700BF08B504F02A
:100CC000C5FB0A2303604FF0FF3008BD08B504F0F0
:100CD000BDFB022303604FF0FF3008BD4FF0FF3033
:100CE000704700BF4FF400534B600020704700BFB7
:100CF00008B504F0ABFB1F2303604FF0FF3008BDC5
:100D000008B504F0A3FB0B2303604FF0FF3008BDD0
:100D100008B504F09BFB0C2303604FF0FF3008BDC7
:100D200070B4154D154A164B164E41F23C044FF463
:100D30001070295941F4805129514FF4007190608D
:100D4000D16050601E601A6851040DD442F4804195
:100D50004FF0384441F001014FF078401960DC60F9
:100D6000186170BC1A6070474FF038414FF07842FC
:100D7000D9601A6170BC70470070044000C0044024
:100D800000C00240000C1F80064B074A1A6040F06A
:100D900000404FF00042DA621A465863D36A002BD3
:100DA000FCDA704700C00240000C1F80CB0770B413
:100DB0000FD50478274B284A1A6044F000444FF0BE
:100DC0000042DA6201301A465C63D36A002BFCDA17
:100DD0000139204B204A1A60052900EB010537D85C
:100DE000490831D01B4E821C002412F8020C12F864
:100DF000013C013443EA002343F010438C42104687
:100E0000736302F10202F0DB854212D9114A1446E3
:100E1000D36A13F0F00FFBD010F8026B10F8013C0E
:100E200043EA062343F0104363638542A36BEFD884
:100E300041B1084A1046D36A13F0F00FFBD00139D4
:100E4000836BF8D170BC7047A842DFD370BC704789
:100E50000321C7E700C00240000C1F80074B084970
:100E60001960084A4FF00041D96219465A63CB6AAB
:100E7000024A002BFBDA906BC0B2704700C0024000
:100E8000000C1F80FF000080CB07F0B511D52F4B61
:100E90002F4C1C602F4A4FF00044DC621E465A6300
:100EA000431CF26A294D002AFBDAAA6B0270013951
:100EB0001846264C264B236005290BD84D0841D0F7
:100EC0006A00254E6663022DC2F10003964609D1E1
:100ED000666307E0204A62634FF0060E62636FF0BC
:100EE000050362630B44C418A04217D2174A1A4F75
:100EF00015460146D36A13F0F00FFBD06F63AB6B5E
:100F0000C3F3072601F8026B8C4201F8013CF1D8CB
:100F1000C343234423F0010302331844744484423E
:100F20000FD90A4A1546D36A13F0F00FFBD0AB6B0A
:100F3000C3F3072100F8021B844200F8013CF2D8F9
:100F4000F0BDF0BDAE462B46CCE700BF00C002406E
:100F5000000C1F80FF000080FFFF0090474B4848B7
:100F6000484A70B541F23C014FF4007640F2032547
:100F70001E635D634358444C43F0100343502368A1
:100F800043F000432360137843F0800313706368D9
:100F900023F4005363602D208021FFF71BFE23689C
:100FA00023F000432360236843F00073236022464C
:100FB00013689C01FCD434490A68334BD001FBD53B
:100FC0001A683249324E42F400321A601A6842F40A
:100FD00080321A601A6842F00F021A6059605A682B
:100FE00022F008025A6059684FF6FF7021F48051D0
:100FF000002259601D46986214464FF08460130128
:1010000003F1402303F5003302F508710132042A8D
:1010100045F82140C3F88460C3F88000EFD11A4E30
:101020001C4D052200244FF08060130103F1402382
:1010300002F5087103F5003301320A2A46F821400F
:10104000C3F884501049C3F88000EED14FF000631C
:10105000C1F83031C1F84031C1F85031C1F86031C8
:10106000C1F870310B6823F080530B600B68DA0114
:10107000FCD4054A13681B01FCD470BD00900440E9
:10108000007004400050064000400240070017175F
:10109000FFFF03000000FC1FF0B40C0104F140242A
:1010A00004F50034D4F88030C3F3036323F0040361
:1010B000022B02D00846F0BC7047D4F8803023F0F1
:1010C0007063C4F88030D4F88030C4F88030D4F82D
:1010D0008050C5F30345EBB28371D4F8802012F43D
:1010E000001FD4F884201ABF22F0604242F0004270
:1010F000C2F38A4202608288022A20D00A0102F1E9
:10110000402202F5003202F18807D2F88860360EDC
:10111000C671D2F88860360C0672D2F88860360A3A
:101120004672D2F888208272032D2AD8072D06D85D
:101130000025C2180133DBB2082BD571F9D104297F
:101140000FD9164D164801F5087300264FF080623E
:1011500045F82360C4F88400C4F880200846F0BC39
:1011600070470E4D0F4801F5087300264FF084625A
:1011700045F82360C4F88400C4F880200846F0BC19
:1011800070477A68120EC2727A68120C02737A681B
:10119000120A42737A688273C8E700BF00400240B7
:1011A0000000FC1FFFFF030010B485B004AC04E98D
:1011B0000F00009C9DF806000B23494A19010A44C0
:1011C0001268C2F30362082A06D00133102BF4D14F
:1011D00005B05DF8044B704701F1402202F5003282
:1011E0000B46002C4FF00061C2F8801063DBD2F890
:1011F000841021F0FF5121F4E011C2F88410D2F8DC
:10120000841041EA8444C2F88440D2F8801021F46A
:101210000011C2F880109DF8071003F1402303F578
:1012200000330906C3F88810D3F888109DF80840E9
:1012300041EA0441C3F88810D3F888109DF80940AA
:1012400041EA0421C3F88810D3F888109DF80A40B9
:10125000032841EA0401C3F8881003F1880314D974
:101260009DF80B100906596059689DF80C4041EA39
:101270000441596059689DF80D4041EA04215960C4
:1012800059689DF80E4021435960D2F8801021F42E
:101290007021C2F88010D2F8803043EA0043C2F8CF
:1012A0008030D2F8803043F04063C2F8803005B01F
:1012B0005DF8044B7047D2F8841001F06041C2F829
:1012C0008410D2F8841024F000440C43C2F8844007
:1012D000D2F8801041F40011C2F880109BE700BFE3
:1012E00080400240084A1378DBB2012B02D0012370
:1012F00053707047222902D02129F8D1002353705E
:1013000001235370704700BF7C8AFF1F084B1A7B74
:101310001A44127902701A7B597B0132D2B2082A20
:1013200008BF0022013959731A7362B60020704752
:101330007C8AFF1F084B1A7E1A44127C02701A7EA8
:10134000597E0132D2B2082A08BF002201395976EB
:101350001A7662B6002070477C8AFF1F72B60C4A6C
:10136000517B082910D010B4937ED4180133DBB21E
:10137000082B08BF0023013120719376517362B6A8
:1013800000205DF8044B704762B60220704700BF32
:101390007C8AFF1F70B561B102292FD004290BD0C0
:1013A000032924D0052903D1194B00221A705A7041
:1013B00070BD174A117070BD154B5B78012BF7D1CA
:1013C0009688082E28BF0826154600243EB12B68B3
:1013D000185D0134E4B2FFF7C1FFA642F7D8002040
:1013E000024603460221BDE8704001F009B9084BEE
:1013F0005A78012ADCD10022DA7670BD002002463C
:10140000034601F0FDF8024B01221A7070BD00BFC7
:101410007C8AFF1F72B6034B5B7B13B962B6032055
:10142000704773E77C8AFF1F014B587B704700BFF2
:101430007C8AFF1F024B587BC0F10800C0B2704786
:101440007C8AFF1F72B6044B00229A609A761A7348
:101450005A735A6062B670477C8AFF1F72B60728BB
:1014600002D962B604207047084B5A7B824202D8E8
:1014700062B6032070471A7B104400F0070018443E
:1014800003790B7062B60020704700BF7C8AFF1F93
:1014900072B6094A537B13B962B603207047117BB9
:1014A0000131C9B2013B082953730ABF00231173EC
:1014B000137362B6002070477C8AFF1F72B60C4A15
:1014C000517E082910D010B4137FD4180133DBB239
:1014D000082B08BF0023013120741377517662B6C0
:1014E00000205DF8044B704762B60220704700BFD1
:1014F0007C8AFF1F72B6034B5B7E13B962B6032072
:10150000704717E77C8AFF1F014B587E704700BF6A
:101510007C8AFF1F024B587EC0F10800C0B27047A2
:101520007C8AFF1F72B6044B00225A611A771A7622
:101530005A761A6162B670477C8AFF1F72B6072816
:1015400002D962B604207047084B5A7E824202D804
:1015500062B6032070471A7E104400F0070018445A
:10156000037C0B7062B60020704700BF7C8AFF1FAF
:1015700072B6094A537E13B962B603207047117ED2
:101580000131C9B2013B082953760ABF0023117605
:10159000137662B6002070477C8AFF1F38B5084C6E
:1015A000637B054672B61BB962B672B6002BFBD0E0
:1015B0002846FFF7ABFE08B1637BF3E738BD00BFF9
:1015C0007C8AFF1F38B501250C4C02460B460020D3
:1015D0002946E57600F06EFB054620B10023E37650
:1015E0000625284638BDE37E002BFAD00A20FEF7F8
:1015F000B7FFE37E002BF9D1284638BD7C8AFF1F58
:101600002DE9F0411C4C06460D4600F095FD23786F
:10161000012B02D00520BDE8F0816378012BF9D1C0
:10162000637ECBB1DDB172B60027B0464046FFF70E
:1016300081FE08F101087B1C38B99FB2AF4204D08B
:1016400072B6637E002BF1D162B630463946FFF7A1
:10165000B9FF48B97B0709D00020BDE8F0812946D1
:101660003046FFF7AFFF08B1BDE8F08130460021FA
:10167000BDE8F041FFF7A6BF7C8AFF1F10B5044C00
:10168000082104F12000FFF7BBFF607B10BD00BF05
:101690007C8AFF1F38B50546FFF710FF0228044675
:1016A00002D00024204638BD07480821FFF7A8FFD4
:1016B000052806D00028F5D12846BDE83840FFF7B8
:1016C000FDBE0124EEE700BFA48AFF1F70B579B10B
:1016D0004E1E10FA86F6441E002514F8010FFFF77F
:1016E000D9FF002818BF0225B442F6D1284670BDA4
:1016F0000D46FBE738B50378044663B1002518466C
:10170000FFF7C8FF14F8013F002818BF0225002B7F
:10171000F5D1284638BD1D46FBE700BF454A464B7C
:10172000464941F23400F0B51458454D44F4802444
:10173000145041F2480641F20407945924F00F0472
:101740009451D45944F48024D451145844F480243E
:10175000145093F894700E0A0024FF2206F0FE0045
:101760004FF0C00C4FF0600EC1F3074647F0020780
:10177000090E83F8947083F800C11A7483F88020EE
:1017800083F8882083F8842083F88C4083F80CE168
:101790001C7583F8984083F8C04083F8C44083F8F0
:1017A000C84083F8CC4083F8D04083F8D44083F815
:1017B000D84083F8DC4083F8E04083F8E44083F8C5
:1017C000E84083F8EC4083F8F04083F8F44083F875
:1017D000F84083F8FC4083F89C0083F8B06083F8FD
:1017E000B41083F8AC401C7783F8084193F8942038
:1017F00002F0D40283B042F0010283F89420012663
:101800002C706C70EC76FFF71DFEFFF78BFE204608
:10181000224600960B490C4B00F0EAF938B90B4B05
:101820004FF40072C3F888219A6003B0F0BD3046CF
:1018300003B0F0BD00700440002007400090FF1F7F
:101840007C8AFF1F95130000E512000000E100E014
:1018500038B50D4B5B7EC3F10803DBB28B4201D27E
:10186000022038BD71B14D1EADB2013504460544AC
:1018700000E030B914F8010BFFF720FEAC42F8D1BC
:1018800038BD38BD0846FBE77C8AFF1F014B18783E
:10189000704700BF7C8AFF1F014B5878704700BF1C
:1018A0007C8AFF1F70B50646007801F0F9FA0478CB
:1018B000002C40D075784378AB423ED0012304E041
:1018C0008279AA4200F1050006D0DAB2A242194696
:1018D00003F10103F4D31146194C337A342202FB8D
:1018E0000142D0780BB39378984210D0342203F0A1
:1018F000030302FB01F103EB430301EB83032344E6
:101900001D1D187969786A682B8900F0FDFBD4F8F1
:101910009C307BB1317A3246002912F8080B0CBF9B
:1019200003210521BDE87040184793780133DBB2ED
:101930009370D9E770BD2146CEE70021CCE700BF08
:10194000AC8AFF1F2DE9F04784B003460E468DF8A0
:101950000F30174601F0A4FA022E05461DD05EB1E5
:101960003048D0F89C3023B131463A469DF80F00FC
:10197000984704B0BDE8F0870378002BF0D02948E1
:1019800033463424314604FB030201339170D17095
:101990002A78DBB29A42F6D8E3E790F80080B8F1F3
:1019A000000FDDD000231C4603EB83032B440134DE
:1019B0005978DA78E4B20DF10F0001F02DFB4445BF
:1019C0002346F1DB0024A146A24604EB84042C4408
:1019D0000DF10F0094F802E0A288E3786178CDF869
:1019E00000E0CDF804A001F0EDFAA3780E4A032B35
:1019F00004D19DF80F00617801F07EFB6378E178F7
:101A000043F0100343EAC11109F101095FFA89F9B2
:101A1000C9B20DF10F00002201F034FBC1454C4664
:101A2000D3DB9DE7AC8AFF1FA5180000F0B50C784A
:101A300004F06004202C03D0402C1ED0CD20F0BD3B
:101A40001E464B7886461746232B13D8DFE803F053
:101A5000121230363C1212121212121212121212FA
:101A60001212121212121212121212121212121256
:101A70004E1E2A2400203080F0BD1F4CD4F8A04018
:101A8000002CDBD0A446BDE8F04060473A46334620
:101A9000BDE8F04000F064B93A463346BDE8F04096
:101AA00000F07CB93A463346BDE8F04000F0C0B9DA
:101AB0003A463346BDE8F04000F090B93A46334626
:101AC000BDE8F04000F072B93B6802224FF0000C14
:101AD000328083F800C03C68621C3A6084F801C020
:101AE00033463A46BDE8F04000F078B93A4633460E
:101AF000BDE8F04000F040B9AC8AFF1FF0B50746E2
:101B000083B0007801F0CCF97B7ABA7A79680091D9
:101B100043EA0223ADF804300578002D42D07E78E8
:101B20004378B34240D0012304E08179B14200F10F
:101B3000050006D0D9B2A9421C4603F10103F4D333
:101B40000C461A4D3B7A342202FB0452D178EBB199
:101B5000937899420FD0342203F0030302FB04F47C
:101B600003EB430304EB83032B44187959799A68F8
:101B70009B8900F0C9FAD5F89C302BB13A7A52B95A
:101B8000387803216A46984703B0F0BD9378013353
:101B9000DBB29370DDE73A46052112F8080B98474F
:101BA00003B0F0BD2C46CCE70024CAE7AC8AFF1F87
:101BB00010B50E49437A827AD1F89C40416882B0D0
:101BC00043EA02230091ADF804302CB1037A2BB91B
:101BD000007804216A46A04702B010BD02460521E4
:101BE00012F8080BA04702B010BD00BFAC8AFF1F5F
:101BF0002DE9F8430F469DF8209016461D460446F1
:101C000001F04EF9027801324B468046D2B22046AE
:101C1000002101F0AFF9814610B14846BDE8F883D4
:101C200020461849184A00F0AFF998F80030D3B1AF
:101C3000DFF858E0484649464FF0340C03B203EB56
:101C4000830343440CFB00F293F801900EF80290DA
:101C500072449B7853709170D170013098F80030C5
:101C6000C0B28342EAD82046294600F073F8814684
:101C70000028D2D1054B4846C3F89C70C3F8A06039
:101C8000BDE8F883451900002D1A0000AC8AFF1F3B
:101C900008B5074B0022C3F89C20C3F8A02000F031
:101CA000C9F900B108BDBDE8084001F083B900BF23
:101CB000AC8AFF1F2DE9F0471F460E46914680462D
:101CC00001F0EEF80378002B3DD04278B2423CD0D0
:101CD000012404E08579B54200F1050006D0E5B2A3
:101CE0009D42224604F10104F4D32A463421184DC2
:101CF00001FB02F2AC18E178A0780B1ADBB2042BDE
:101D000016D001F00303013103EB4303C9B202EB28
:101D10008302081AAB18C0B2012883F804805E71F0
:101D2000C3F808909F81E17005D00020BDE8F087DE
:101D3000C120BDE8F087404631464A463B46BDE8F3
:101D4000F04700F0E1B91A46D0E70022CEE700BF25
:101D5000AC8AFF1F014B002019607047508BFF1F9A
:101D600010B40B79034C194623715DF8044B01F054
:101D70009BB800BF508BFF1F10B5002482B01C80A1
:101D80000B79054C02AA237142F8041D194601F093
:101D900099F802B010BD00BF508BFF1F00201880C3
:101DA000014B4A88DA807047508BFF1F30B4022401
:101DB0001C804C88084D09792971012C05D0022C12
:101DC00006D00020188030BC704730BC01F094B8B9
:101DD00030BC01F09DB800BF508BFF1F30B402240F
:101DE0001C804C88084D09792971012C05D0022CE2
:101DF00006D00020188030BC704730BC01F094B889
:101E000030BC01F0A3B800BF508BFF1F30B4064BAD
:101E1000064C1A791D7A22712572224603210A2363
:101E200030BCFFF747BF00BF508BFF1F0C80FF1F68
:101E3000F8B500261E808B780F4CC3F3400569006F
:101E400065F3000103F0010221726372A27207467A
:101E5000FFF7DCFF256845B1637A03F0020303F066
:101E6000FF0238461BB92121A8470020F8BD3246A1
:101E70002221A8470020F8BD508BFF1F0246034BCC
:101E800012F8080B1B680521184700BF5C8BFF1F69
:101E900070B5094D04462A1D012101F0D9F82046EC
:101EA0000121802201F0EEF82B6820780A2100221F
:101EB000BDE87040184700BF5C8BFF1F30B583B092
:101EC00001210DF10702044601F0C2F89DF8073028
:101ED000074D802B06D02B6820780B2100229847D5
:101EE00003B030BD20462A79012101F0CBF8F2E79A
:101EF0005C8BFF1F436805215A7801F0C3B800BF0F
:101F000070B5002182B001220C460546164601F04C
:101F100083F833462146284600940196102201F0AA
:101F200051F821462246284601F076F823462146FC
:101F30008DE850002846102201F044F8314628462A
:101F4000022201F09FF832462846062101F09AF855
:101F500022462846902101F095F8044B28781B680A
:101F60002146224602B0BDE8704018475C8BFF1F37
:101F7000427802B17047C178C90141F0100101F007
:101F8000900101F07FB800BF70B582B003460E46E5
:101F90008DF8073001F050FB1F4D04462E600028DD
:101FA00036D11E4A9DF80700102101F0A5F8122134
:101FB00004461B4A9DF8070001F09EF814210443D3
:101FC000184A9DF8070001F097F8E4B21321044382
:101FD000154A9DF8070001F08FF8E4B21721044379
:101FE000124A9DF8070001F087F802AEE4B20443FC
:101FF000162116F8010D0E4A01F07EF8E4B20443F2
:1020000001210322304601F03DF80323E4B22B7195
:10201000204602B070BD00BF5C8BFF1F011F000097
:10202000F51E0000911E0000BD1E0000711F000083
:102030007D1E000030B583B002AD184B05F8010DD0
:102040000022102128461A6001F058F81221044697
:10205000284601F053F814210443284601F04EF8B5
:10206000E4B213210443284601F048F8E4B21721F2
:102070000443284601F042F8E4B2044316212846FE
:1020800001F03CF8E4B2204310F0FF0003D19DF8CA
:10209000070001F0DDFA03B030BD00BF5C8BFF1F0D
:1020A00030B585B004AC012104F8090D0DF10E0224
:1020B000204600F0CDFF204606210DF10F0200F072
:1020C000C7FF9DF80E00802801D005B030BD9DF8F7
:1020D0000F309B07F9D59DF8070000F0DFFE0128BF
:1020E000054603D09DF80E0005B030BD72B62046FF
:1020F00000F0A2FB0023204629461A468DF80E3038
:1021000000F0C0FF62B6EDE770B582B004468DF80E
:1021100007400E4615461C46FFF7C2FF802808D030
:1021200031462A4623460DF1070000F019FB02B0A4
:1021300070BD002002B070BD704700BF2DE9F041B6
:10214000334E344C034630464FF0000884F800818B
:102150004FF4107200F8043B06F580650F46FF212E
:1021600003F07AF94FF4806241462846C6F844529B
:1021700003F072F994F80C3143F0800384F80C31C9
:10218000224692F80C3123491B06FAD4224BFF2237
:102190001A7091F80C31214A43F0400381F80C3158
:1021A000136887BB23F0004313601A4B1C49C6F821
:1021B00000182A0AC5F307461024012002F0FE0287
:1021C0002D0EBF2183F89C2083F8B06083F8B450B3
:1021D00083F8084183F8940083F8801093F8002175
:1021E00002F07F0283F8002193F88420024383F8F1
:1021F000842093F884208421224383F88420197753
:102200000020BDE8F08143F000431360CDE700BF3C
:10221000008CFF1F002007401680FF1F0070044045
:102220000092FF1F0D4B93F80C21BF210A4083F849
:102230000C2183F8801093F8842002F0FE0283F8CA
:10224000842093F8942002F0FE0283F894201A7FF1
:1022500002F07B021A770020704700BF0020074081
:102260002DE9F0410B464A48B3F803401D789E78AB
:1022700003C882B002AFB4F5007F07E9030003D9B9
:1022800000200221D8701971062D11D8AF00012E3F
:10229000F9B211D049084FEAC10E3E4C0EEB0100D5
:1022A00004EB40004FF6FF7CB0F80480E04506D018
:1022B000952002B0BDE8F0810231C9B2EAE793F897
:1022C00001C0BCF1030FF3D8012EF1D80C3090F807
:1022D00007C0BCF1FF0F08BF4FF0000C71440CBFEA
:1022E00080F807C00CF0010C04EB410047EA4601FE
:1022F00041EA0C01B3F803E0D4F80078A0F804E058
:10230000C9B2C174C0F8067082745A78D4F844E235
:1023100042754AB206750EEBC20100F10C0CB3F81F
:102320000300488008204F600EF832009CF8072018
:10233000B3F8038082F001020EEBC20148204F6027
:10234000A1F802800EF83200B3F803201744C4F855
:1023500000783EB99CF807101EF8312062F07F0229
:102360000EF8312002AA02EB86062DB20A495B78EC
:1023700056F8082C11F82500012B0CBF134642F02B
:1023800001030343DBB201F82530002091E700BFD1
:102390008C9D0000008CFF1FC0200740062925D817
:1023A0008B00012A30B4DBB225D05B08134A03EB63
:1023B000C30302EB43034FF6FF759988A94217D078
:1023C000D2F84412DA7C14B282F0010211F834001F
:1023D00000F07F0001F8340011F8320000F07F00B7
:1023E00001F83200DD81002030BC7047C420704706
:1023F000C42030BC70470233DBB2D6E7008CFF1F2D
:10240000F0B583B006290D468DF8070025D88B005E
:10241000012ADBB224D05B08134F03EBC30307EBA5
:1024200043044FF6FF76A388B34216D029460DF138
:102430000700FFF7B3FF2DB20C4AA1882346002006
:1024400002F82500D7F8002823F8046F521A5E809E
:102450009E80C7F8002803B0F0BD962003B0F0BD01
:102460000233DBB2D7E700BF008CFF1FC02007405C
:102470000629F8B525D88B00012ADBB226D05B08E7
:10248000DD00144CEE1804EB46064FF6FF77B688D5
:10249000BE4204BF7F234FF47E752B4404EB4303FD
:1024A0000C4DDC7CFF2C0BD0FFF778FF24B2D5F865
:1024B000442212F8343063F07B0302F83430F8BD64
:1024C000F8BD044C7F234FF47E75E6E70233DBB2A0
:1024D000D5E700BF008CFF1F062930B41ED8490085
:1024E00001F07E01C800104B441803EB44044FF682
:1024F000FF75A488AC4204BF7F214FF47E70014475
:1025000003EB4101D3F84432C97C03EBC10330BC77
:102510005B6819685B68536011607047024B7F21EC
:102520004FF47E70EBE700BF008CFF1F06291BD81D
:102530008800012A10B4C0B229D04308174A03EB1F
:10254000C30302EB43034FF6FF749B88A34207D0FB
:1025500009B2134B13F82130DBB213F00C0F05D185
:1025600005205DF8044B7047052070479B0711D488
:10257000D2F8443213F83020D2090DD140F00100D6
:1025800013F83030DB0914BF03200020E9E70230E4
:10259000C0B2D2E70120E4E70320E2E7008CFF1F8E
:1025A000C0200740062810B420D880000129C0B2FE
:1025B00021D04008C200114B111803EB41014FF626
:1025C000FF748988A14204BF7F204FF47E721044BB
:1025D00003EB4000094AC37CFF2B04D0D2F844220D
:1025E000002102F833105DF8044B7047034B7F2045
:1025F0004FF47E72EBE70230C0B2DAE7008CFF1FC7
:102600000629F0B545D8490001F07E01CC002C48E0
:10261000651800EB45054FF6FF76AD88B54204BF5F
:102620007F214FF47E74214400EB410101F10C063F
:10263000F4792348FF2C2AD0B1F804E0D0F8447292
:102640004FF6FF70864501F1040120D084F00100AF
:1026500017F8305025F07F0505F0FF00BDB9EBB14C
:1026600025B207EBC50C9E4528BF9E467380C1F876
:102670000620B080ACF802E0CCF8042017F8343023
:1026800003F0400363F0770307F83530F0BD942082
:10269000F0BD0B487F214FF47E74C4E722B207EBF4
:1026A000C203A3F802E0D1F80210596017F83430E1
:1026B00003F0400363F0770307F83230F0BD00BF4A
:1026C000008CFF1F0629F0B538D88B00012ADBB239
:1026D0003ED05B08DC00204DE61805EB46064FF6C1
:1026E000FF77B688BE4204BF7F234FF47E74234435
:1026F00005EB4303DF7CFF2F1FD00EB2174C81B1D7
:1027000093F815C014F826E0012A0CBF14231823EF
:10271000BCF1010F18BF43F0010343EA0E0304F8B4
:10272000263014F826306FF3410304F82630D5F82C
:102730004432002403F837402AB1F0BD064D7F2310
:102740004FF47E74D3E71346BDE8F040FFF758BF5F
:102750000233DBB2BDE700BF008CFF1FC020074083
:1027600006293BD888002DE9F0410230C0F346002D
:10277000204D00EBC00005EB40004FF6FF7486884B
:10278000A64200F1040C26D000F10C04D5F84472E6
:1027900094F807E017F83E0000061CD416480DB266
:1027A00010F8255005F0020505F0FF009DB99BB219
:1027B0000FFA8EF807EBC8059E42A8BF1E4663803D
:1027C000CCF80620A0806E806A6049B9C82307F85B
:1027D0003830BDE8F0819320BDE8F0819320704748
:1027E00017F83E3003F0400363F0770307F8383002
:1027F000BDE8F081008CFF1FC0200740044B054856
:102800000A46012183F898200A4600F03BBC00BF2D
:1028100000200740008CFF1F054B06480021802246
:1028200083F8941083F80C210121FF2200F02ABCC8
:1028300000200740008CFF1F10B51A4B93F80021B1
:1028400002F07F0283F8002193F80C2102F0DF02EE
:1028500083F80C2193F8802042F0200283F8802036
:1028600093F8842002F0DF0283F8842093F8942008
:1028700002F0DF0283F8942093F8942042F00402DF
:1028800083F8942044F62064013CA4B200F0F4FEE6
:10289000002CF9D1034A92F8943003F0FB0382F83C
:1028A000943010BD002007402DE9F04FD54ED64D95
:1028B00096F880402B7896F884C096F890E087B020
:1028C000FF278DF80C300DF1090200232846012165
:1028D0008DF80E3004938DF815308DF816308DF884
:1028E0000F308DF814300CEA04045FFA8EF88DF87E
:1028F00009708DF80D7000F0ABFB96F80C31DA071B
:1029000004D59DF80930802B00F06081630711D455
:10291000E70723D4260700F1D580A00700F1B9808E
:10292000E10600F19880A20664D4230672D407B0B1
:10293000BDE8F08FB34991F8A40091F8A02006AB50
:1029400042EA0022042081F8800023F80E2D122094
:1029500003A9049300F0E4FBE707DBD5A94CAB48DF
:10296000BF27012384F8803084F8887094F894306D
:10297000002643F0020384F89430FF2184F8986025
:102980004FF4107284F8006102F066FD3146D5F80C
:1029900044024FF4806202F05FFD9D4AD5F8443254
:1029A000FF21117094F8942002F0FD0284F8942025
:1029B00094F80C219F2142F0400284F80C2184F805
:1029C0008C7084F8841094F8942002F0DF0284F86C
:1029D000942003F5007303A91020C5F8003800F017
:1029E0009FFB94F8943003F0DF0384F8943007B031
:1029F000BDE8F08F834D202385F88030132003A994
:102A000000F08EFB95F8843003F0DF0385F8843006
:102A100023068CD50DF10C0AFF23504610210DF131
:102A20000A028DF80D3000F013FB9DF80A30012BDF
:102A300000F05E81734C802384F88030514617206B
:102A400000F06EFB94F8943003F0DF0384F89430C8
:102A500007B0BDE8F08F6B4D1023202285F8802051
:102A6000142085F8803003A900F05AFB95F80C314A
:102A700043F0200385F80C3195F8003143F08003D2
:102A800085F8003195F8843043F0200385F88430D0
:102A900049E75C4D022385F8803095F8883095F839
:102AA0008C201620134003A98DF8143000F038FB59
:102AB000BF2385F8883095F8943003F0DF0385F85C
:102AC00094302DE74FEA18124E4B0820C8F3C0018E
:102AD000062A83F880008DF80D208DF80F1040F243
:102AE00082804FF07F084FF0FE09FF22D5F8447234
:102AF0004FEAC80606EB080305EB430307EBC200E9
:102B0000D97CD0F804E0CDF810E04088ADF815008D
:102B100081F00101D97417F83230C3F3801383F0C8
:102B200001039B0107F839309DF80F304FEAC90BBC
:102B3000012B07EB0B0C9DF80D306BD06BB917F820
:102B4000322002F03C02342A00F0DF80DFF8C0E0DF
:102B50009EF80020012A00F0088106EB080305EB2F
:102B6000430303F10C0041884FF6FF72914200F0DD
:102B7000BA80BDF815E08288724492B282809B8848
:102B80009E457AD039B1B1FBF3F003FB101080B24F
:102B9000002800F09F80464405EB46054FF6FF7085
:102BA000D5F80A109DF80D30ADF81520E881049194
:102BB0000DF10C0A1846514600F0B2FA114A92F88B
:102BC000943003F0DF0382F89430A6E696F80031E3
:102BD00003F07F0386F8003196F80C3103F0DF0331
:102BE00086F80C3192E6C8F3800303EB82030029D8
:102BF00040F0848083F001091A465FFA89F9C3F333
:102C0000470873E700200740008CFF1F048CFF1F5C
:102C10001680FF1F184633B9624A1178002900F068
:102C200085800129C4D106EB080205EB420202F1BE
:102C30000C01BDF815A08B88B1F802E053449BB29B
:102C400073458B8035D29288464405EB4605C3EB2D
:102C50000E0ED5F80A1096450B44D8BF1FFA8EF217
:102C6000ACF80220CCF8043017F8393003F04003F8
:102C700063F0770307F80B30A0E7914282D9891AF5
:102C800099424644D8BF8BB205EB4605002B45D18F
:102C9000D5F80620CCF804208CF802308CF80330EC
:102CA00017F8393003F0400363F0770307F80B306F
:102CB00084E792885FFA8AFA52456ED0464405EB63
:102CC0004605ADF81530D5F80A3004930DF10C0A1D
:102CD00003466FE706EB080005EB4000807C012807
:102CE0007FF459AFCBE79DF80D300DF10C0A61E789
:102CF00000228DF80F308DF80D209BE60233DAB2FA
:102D000082F001094FEA5208F0E60122049B8DF897
:102D10000E201B78234ADB0913701EE7D5F80A1032
:102D2000ACF802300A44CCF80420B9E74FF0FF0EAB
:102D30000DF10C0A194682F800E050461A46CDF80B
:102D400004C00093FFF72AFB009B07F80B301946DD
:102D50001A465046FFF754FC9DF80D30DDF804C0CC
:102D60001846002B7FF45FAF24E70DF10C0A1946DB
:102D7000009350464FF0FF33CDF804C08EF800307A
:102D8000FFF70CFB009B07F80B30504619461A461C
:102D9000FFF736FCDDF804C0DFE6897901298DD123
:102DA00052E700BF1680FF1F0B4611461A4602F07D
:102DB00053BB00BF032910B417D0072903D9CD2076
:102DC0005DF8044B70471E4B019803EB8102126AB9
:102DD0000260002AF3D003EB4101029AB1F84030BF
:102DE000138000205DF8044B7047BBB140F20941ED
:102DF0008B421DD00122134604215C00104823445D
:102E000000EB83030020DC681B696158019C216092
:102E10009B5C029A5DF8044B138070470199094A44
:102E20000A601846029B5DF8044B04221A80704722
:102E3000022A92BF9100042101220023DDE700BF96
:102E4000949D00001880FF1F012901D9CD207047F3
:102E5000024B5B5C13700020704700BF0494FF1F9F
:102E600001299DBF024B00205A54CD20704700BF5E
:102E70000494FF1F01298CBF00200120704700BF70
:102E8000054B1A788A4205D05B78581AB0FA80F060
:102E900040097047012070470494FF1F00207047CD
:102EA00000487047E49D0000012901D9CD207047FA
:102EB000034BC1EBC101194411600020704700BFF2
:102EC0001C80FF1F012901D9CD207047094BC1EBA0
:102ED000C10110B4CC1D1C44194408231068C05C07
:102EE00001F8010BA14203F10103F7D100205DF8C5
:102EF000044B70471C80FF1F012901D9CD2070476A
:102F0000024B03EB41011160002070470894FF1F42
:102F1000012901D9CD207047024B03EB410111601B
:102F2000002070470C94FF1F012901D9CD20704764
:102F3000054B106803EB410103780B7113685B7854
:102F40004B710020704700BF0494FF1F012901D975
:102F5000CD207047054B106803EB410103780B72DD
:102F600013685B784B720020704700BF0494FF1F0A
:102F700000BF7047013AD2B2062A01D999207047A2
:102F800030B40A4CFF2522706270E21C0A3402F849
:102F9000015FA242FBD1064A0525D41D02F8015F5C
:102FA000A242FBD1194630BCFFF7C8B81094FF1FEE
:102FB0001B94FF1F024B00221A70FFF733B900BFAA
:102FC0001094FF1FF0B5134C83B066789DF8207005
:102FD0009DF824C00D4696461EB911B1952003B048
:102FE000F0BD00788DF80230624669468DF80050D9
:102FF000ADF803E08DF80170FFF732F99DF800306D
:10300000002BECD00028EAD16378013B637003B059
:10301000F0BD00BF1094FF1F70B50C4C667825788A
:10302000AE420AD00D460078FFF7EAF925B118B98B
:1030300063780133637070BD70BD09B1962070BDB7
:103040000078BDE87040FFF7DBB900BF1094FF1FA8
:103050004B1E062B0DD9CB0601D48220704701F000
:103060000F010629F9D8064B194400200B7B137079
:103070007047034B19440020CB781370704700BF92
:103080001094FF1FF0B54B1E062B83B0154625D9B3
:10309000CB0602D4822003B0F0BD01F00F07062F4B
:1030A000F8D8012A4FEAD1141ED0124B92B9DA197E
:1030B000127B012A0ED13946224601930646FFF7BC
:1030C00001FB019B37B9304684F001023946FFF716
:1030D000F9FA019B1F4400203D73DCE7054B1944BE
:1030E0000020CA7003B0F0BD22463946FFF7C0F990
:1030F000004BEFE71094FF1F00207047062905D909
:10310000A1F11003072B01D9C4207047034B53F8DA
:103110002130002B0CBFC420002070470C9E000003
:10312000102810B507D00D4B53F820300BB10846CE
:103130009847002010BD0A4A13785370FF24D31C0F
:103140000A3203F8014F9342FBD1064B0524DA1DE6
:1031500003F8014F9342FBD1E5E700BF0C9E00004E
:103160001094FF1F1B94FF1F30B585B004A90225E2
:1031700001F8090D14461D800DF10F0208460521C6
:10318000FFF766FF034B9DF80F201A80236005B000
:1031900030BD00BF2494FF1F30B585B004A90125C0
:1031A00001F8090D14461D800DF10F020846042197
:1031B000FFF74EFF034B9DF80F201A80002023607D
:1031C00005B030BD2494FF1F70B5002484B01C806E
:1031D0004988ADF80E1003468DF80730FFF74AFE18
:1031E00018B90425284604B070BDBDF80E20B2FA07
:1031F00082F20DF1070052090121FFF743FF9DF80C
:103200000E200B4E0DF107000421FFF73BFF736802
:1032100005460DF10E029DF80700012198479DF823
:1032200007007368224602219847284604B070BD03
:103230002494FF1F30B583B002AA002402F8010DC8
:103240000D461C80104601210422FFF71BFF034B93
:103250006A881A72204603B030BD00BF2494FF1F55
:1032600010B582B000928C884A880193110A2346D7
:10327000D2B2FFF79FFD02B010BD00BFF0B587B01E
:103280000D468DF80F004FF0000E032416460DF189
:103290000F0004AA01218DF810401F46CDF814E05C
:1032A000FFF7D6FE2A78144007D0012C43D0022C19
:1032B0002DD02A4D356007B0F0BD0DF111020DF192
:1032C0000F000621FFF7C4FE9DF811E0234D9DF885
:1032D0000F0005AA0DF112030EF0030E8DE80C008D
:1032E000022123462246A5F800E0FFF763FD059B77
:1032F000DB7913F0400F2B8814BF43F0010323F058
:1033000001032B8002233B80356007B0F0BD297993
:10331000124D41F01001C9B20DF10F000DF1120272
:10332000FFF796FE9DF8123003F001032B803C80DE
:10333000356007B0F0BD9DF81030AA88074D012B0D
:1033400006D0002202232A803B80356007B0F0BD02
:1033500012F0FF0FF5D0CD20ACE700BF2494FF1F83
:1033600070B500221A800B784A7884B013F00303FA
:103370000C468DF80700C2F3400607D116BB4E88F5
:10338000012E3FD0CD25284604B070BD022BF9D1C7
:1033900009798DF80F100DF1070041F01001324648
:1033A000FFF770FE6378002E14BF07210821012B60
:1033B000054641D0254B9DF807005B680DF10F02D3
:1033C0009847E0E74B88013B9BB2012BDAD80DF11F
:1033D000070006210DF10F02FFF73AFE054600280F
:1033E000D1D1A2789DF80F3006FA02F21343DBB276
:1033F0000DF107001A4606218DF80F30FFF742FE47
:103400000546C0E70DF1070006210DF10F02FFF799
:103410001FFE05460028B6D1A2789DF80F309640D1
:1034200023EA06060DF10700324606218DF80F60EB
:10343000FFF728FE0546A6E79DF80F1001F00F00E4
:10344000C909FFF7AFF80821B4E700BF2494FF1FB4
:1034500010B500241C800B7803F00303012B01D06E
:10346000042010BD0B4609799A78FFF7F9FC204635
:1034700010BD00BF70B50C7804F00304012C01D01E
:10348000042070BD044E1C80154609793246FFF7B2
:10349000DBFC2E6070BD00BF2494FF1F10B582B00E
:1034A000CD298DF807001CD0114C1988608A12684C
:1034B000814284BF014618800B469DF80700002119
:1034C000FEF722FE94F90C30002B01DB02B010BD98
:1034D00000210A460B460DF10700FFF791F802B0F4
:1034E00010BD0DF1070090210122FFF7CBFDEDE7A4
:1034F0002494FF1FF0B5044683B000256A460121DD
:103500008DF800500195FFF7A3FDA278012A21D084
:103510009DF80030042B3AD0444991F90C30002B2F
:1035200016DBE378A3B9CF6B67B3B4F80930207822
:10353000083301AE0DF102051431ADF80230324608
:103540002B46B8470146207832462B46FFF7A6FFA8
:1035500003B0F0BD6368354E5968186806F10C0772
:103560003B4603C3317B738A11F0600F23D1737B19
:103570002F4951F823C0BCF1000F03D09DF8002063
:10358000022A2CD9CD2101AE0DF10205DBE702ADF7
:10359000237805F8063D254C2846217AFFF72EF9B9
:1035A00001210A462846FFF76DFD2846227A0321AD
:1035B000FFF768FDCCE7202BADF802302ED803B31F
:1035C0000A061ED497E8030006F1140282E80300FD
:1035D00006F11C0220462946FFF712F8B8E703EB74
:1035E00043030B44134493F83430012BCAD101AE8A
:1035F0000DF10205394632462B462078E047014658
:10360000A1E7F76B002FBDD001AE0DF1020509490E
:10361000207832462B46B847014694E702A8237823
:1036200000F8073D9021FFF72DFD91E72494FF1F3F
:103630006C9E00003094FF1F034B5960DA63002139
:10364000024AFFF759BD00BF2494FF1FF534000064
:1036500010B582B002AA002302F8010D044C1046F6
:1036600019466360E363FFF749FD02B010BD00BF78
:103670002494FF1F00207047034B4AF202614BF273
:10368000804299819A8170470020054080F0004077
:1036900002E000BF81F0004142001FBF5FEA41032A
:1036A00092EA030F7FEA226C7FEA236C6AD04FEA2A
:1036B0001262D2EB1363C1BFD2184140484041406F
:1036C000B8BF5B42192B88BF704710F0004F40F421
:1036D000000020F07F4018BF404211F0004F41F43D
:1036E000000121F07F4118BF494292EA030F3FD009
:1036F000A2F1010241FA03FC10EB0C00C3F120031C
:1037000001FA03F100F0004302D5494260EB4000AA
:10371000B0F5000F13D3B0F1807F06D340084FEA15
:10372000310102F10102FE2A51D2B1F1004F40EB0A
:10373000C25008BF20F0010040EA03007047490072
:1037400040EB000010F4000FA2F10102EDD1B0FA3D
:1037500080FCACF1080CB2EB0C0200FA0CF0AABF32
:1037600000EBC25052421843BCBFD04018437047D0
:1037700092F0000F81F4000106BF80F400000132D6
:10378000013BB5E74FEA41037FEA226C18BF7FEAAD
:10379000236C21D092EA030F04D092F0000F08BFEF
:1037A0000846704790EA010F1CBF0020704712F0D6
:1037B0007F4F04D1400028BF40F00040704712F115
:1037C00000723CBF00F50000704700F0004343F07A
:1037D000FE4040F4000070477FEA226216BF0846B0
:1037E0007FEA23630146420206BF5FEA412390EA73
:1037F000010F40F4800070474FF0000304E000BF69
:1038000010F0004348BF40425FEA000C08BF704719
:1038100043F0964301464FF000001CE050EA0102DD
:1038200008BF70474FF000030AE000BF50EA0102F2
:1038300008BF704711F0004302D5404261EB4101DF
:103840005FEA010C02BF84460146002043F0B64304
:1038500008BFA3F18053A3F50003BCFA8CF2083A29
:10386000A3EBC25310DB01FA02FC634400FA02FC32
:10387000C2F12002BCF1004F20FA02F243EB020039
:1038800008BF20F00100704702F1200201FA02FC9B
:10389000C2F1200250EA4C0021FA02F243EB02008E
:1038A00008BF20EADC7070474FF0FF0C1CEAD052D2
:1038B0001EBF1CEAD15392EA0C0F93EA0C0F6FD093
:1038C0001A4480EA010C400218BF5FEA41211ED071
:1038D0004FF0006343EA501043EA5111A0FB01315D
:1038E0000CF00040B1F5000F3EBF490041EAD37132
:1038F0005B0040EA010062F17F02FD2A1DD8B3F1AE
:10390000004F40EBC25008BF20F00100704790F01C
:10391000000F0CF0004C08BF49024CEA502040EA6E
:1039200051207F3AC2BFD2F1FF0340EAC250704734
:1039300040F400004FF00003013A5DDC12F1190F72
:10394000DCBF00F000407047C2F10002410021FAE4
:1039500002F1C2F1200200FA02FC5FEA310040F1FC
:10396000000053EA4C0308BF20EADC70704792F075
:10397000000F00F0004C02BF400010F4000F013AAD
:10398000F9D040EA0C0093F0000F01F0004C02BFA8
:10399000490011F4000F013BF9D041EA0C018FE717
:1039A0000CEAD15392EA0C0F18BF93EA0C0F0AD01D
:1039B00030F0004C18BF31F0004CD8D180EA010043
:1039C00000F00040704790F0000F17BF90F0004FDC
:1039D000084691F0000F91F0004F14D092EA0C0FBE
:1039E00001D142020FD193EA0C0F03D14B0218BF51
:1039F000084608D180EA010000F0004040F0FE4097
:103A000040F40000704740F0FE4040F44000704732
:103A10004FF0FF0C1CEAD0521EBF1CEAD15392EAB1
:103A20000C0F93EA0C0F69D0A2EB030280EA010CA1
:103A300049024FEA402037D04FF0805343EA11113A
:103A400043EA10130CF000408B4238BF5B0042F198
:103A50007D024FF4000C8B4224BF5B1A40EA0C003D
:103A6000B3EB510F24BFA3EB510340EA5C00B3EB6F
:103A7000910F24BFA3EB910340EA9C00B3EBD10F5D
:103A800024BFA3EBD10340EADC001B0118BF5FEAAF
:103A90001C1CE0D1FD2A3FF650AF8B4240EBC250D8
:103AA00008BF20F0010070470CF0004C4CEA502099
:103AB0007F32C2BFD2F1FF0340EAC250704740F4E8
:103AC00000004FF00003013A37E792F0000F00F0DA
:103AD000004C02BF400010F4000F013AF9D040EA58
:103AE0000C0093F0000F01F0004C02BF490011F4EC
:103AF000000F013BF9D041EA0C0195E70CEAD153E4
:103B000092EA0C0F08D142027FF47DAF93EA0C0FCA
:103B10007FF470AF084676E793EA0C0F04D14B02AE
:103B20003FF44CAF08466EE730F0004C18BF31F060
:103B3000004CCAD130F000427FF45CAF31F000435A
:103B40007FF43CAF5FE700BF4FEA4002B2F1FE4FA7
:103B50000FD34FF09E03B3EB12620DD94FEA00234F
:103B600043F0004310F0004F23FA02F018BF404228
:103B700070474FF00000704712F1610F01D142020F
:103B800005D110F0004008BF6FF0004070474FF0C3
:103B90000000704742000ED2B2F1FE4F0BD34FF03F
:103BA0009E03B3EB126209D44FEA002343F00043B3
:103BB00023FA02F070474FF00000704712F1610FD6
:103BC00001D1420202D14FF0FF3070474FF00000A8
:103BD000704700BF844641EA000313F003036DD130
:103BE000403A41D351F8043B40F8043B51F8043BC0
:103BF00040F8043B51F8043B40F8043B51F8043BC7
:103C000040F8043B51F8043B40F8043B51F8043BB6
:103C100040F8043B51F8043B40F8043B51F8043BA6
:103C200040F8043B51F8043B40F8043B51F8043B96
:103C300040F8043B51F8043B40F8043B51F8043B86
:103C400040F8043B51F8043B40F8043B51F8043B76
:103C500040F8043B51F8043B40F8043B51F8043B66
:103C600040F8043B403ABDD2303211D351F8043B06
:103C700040F8043B51F8043B40F8043B51F8043B46
:103C800040F8043B51F8043B40F8043B103AEDD2B5
:103C90000C3205D351F8043B40F8043B043AF9D206
:103CA000043208D0D2071CBF11F8013B00F8013BD9
:103CB00001D30B8803806046704700BF082A13D3E6
:103CC0008B078DD010F003038AD0C3F10403D21AFE
:103CD000DB071CBF11F8013B00F8013B80D331F832
:103CE000023B20F8023B7BE7043AD9D3013A11F8B2
:103CF000013B00F8013BF9D20B7803704B7843701D
:103D00008B78837060467047000000000000000060
:103D100000000000000000000000000000000000A3
:103D2000A2EB0300704700BF02780B78012A28BF7E
:103D30009A42F5D16DE9044540EA0104CDE90267F4
:103D40006FF0000C4FEA447212B380EA010414F0E1
:103D5000070F6AD100F0070420F0070004F0030504
:103D600021F007014FEAC505F0E8042314F0040F21
:103D7000F1E804670CFA05F462EA040266EA040654
:103D80000AD063EA0403624667EA0407664603E072
:103D9000F0E80423F1E8046782FA4CF582EA0604AD
:103DA000A4FA8CF46CBB83FA4CF583EA0705A5FAF8
:103DB0008CF595B950E9022351E9026782FA4CF576
:103DC00082EA0604A4FA8CF483FA4CF583EA070528
:103DD000A5FA8CF52543DBD09CB92DBAB5FA85F44C
:103DE00024F0070427FA04F1DDE9026723FA04F35B
:103DF00003F0FF0001F0FF01FDE80445A0EB010026
:103E0000704724BAB4FA84F424F0070426FA04F1C3
:103E1000DDE9026722FA04F202F0FF0001F0FF017F
:103E2000FDE80445A0EB0100704714F0030F3CD1FE
:103E300010F0030428D150F8082B51F8083B82FAFF
:103E40004CF582EA0305A5FA8CF55DB950F8042C0F
:103E500051F8043C82FA4CF582EA0305A5FA8CF588
:103E6000002DE8D02DBAB5FA85F424F0070423FA22
:103E700004F122FA04F202F0FF0001F0FF01FDE874
:103E80000445A0EB010070474FEAC40420F0030092
:103E900050F8082B21F0030151F8083B0CFA04F408
:103EA00062EA040263EA0403C9E710F003041AD0CB
:103EB000A1EB040120F00300E40750F8042B06D026
:103EC0000FD28B785FFAA2F4E41A06D12BB1CB782B
:103ED0005FFAB2F4E41A00D11BB920465DF8104B2A
:103EE000704701F1040150F8042BCC0721F00301C5
:103EF00051F8043B48D824D222F07F4482FA4CF592
:103F000094EA1325A5FA8CF50AD165B951F8043B5A
:103F100084EA0204B4EB036F0ED150F8042BEBE7F4
:103F20004FEA132355E035F07F454DD10878FDE881
:103F30000445C0F1000070474FEA126203F0FF032E
:103F400047E002EA1C4482FA4CF594EA1345A5FACC
:103F50008CF50AD165B951F8043B84EA0204B4EB4C
:103F6000034F0CD150F8042BEBE74FEA134330E03A
:103F700015EA1C4528D10B884FEA124229E04FEA86
:103F8000124203EA1C4324E002F0FF0482FA4CF5DB
:103F900094EA1365A5FA8CF50AD165B951F8043B8A
:103FA00084EA0204B4EB032F09D150F8042BEBE7A9
:103FB0004FEA13630DE015F0FF0F05D10B684FEAD0
:103FC000122223F07F4304E04FF00000FDE8044597
:103FD000704712BA1BBA82FA4CF482EA0304A4FABC
:103FE0008CF5B5FA85F402FA04F203FA04F34FEA09
:103FF0001260FDE80445A0EB1360704781F00041BA
:1040000002E000BF83F0004330B54FEA41044FEABD
:10401000430594EA050F08BF90EA020F1FBF54EA58
:10402000000C55EA020C7FEA645C7FEA655C00F0F4
:10403000E2804FEA5454D4EB5555B8BF6D420CDDC5
:104040002C4480EA020281EA030382EA000083EA48
:10405000010180EA020281EA0303362D88BF30BDE8
:1040600011F0004F4FEA01314FF4801C4CEA11313E
:1040700002D0404261EB410113F0004F4FEA03339D
:104080004CEA133302D0524263EB430394EA050F28
:1040900000F0A780A4F10104D5F1200E0DDB02FA97
:1040A0000EFC22FA05F2801841F1000103FA0EF22B
:1040B000801843FA05F359410EE0A5F120050EF1F1
:1040C000200E012A03FA0EFC28BF4CF0020C43FA22
:1040D00005F3C01851EBE37101F0004507D54FF02F
:1040E000000EDCF1000C7EEB00006EEB0101B1F57F
:1040F000801F1BD3B1F5001F0CD349085FEA3000C5
:104100004FEA3C0C04F101044FEA445212F5800FCF
:1041100080F09A80BCF1004F08BF5FEA500C50F16C
:10412000000041EB045141EA050130BD5FEA4C0C4F
:10413000404141EB010111F4801FA4F10104E9D1D8
:1041400091F0000F04BF01460020B1FA81F308BFCF
:104150002033A3F10B03B3F120020CDA0C3208DD9B
:1041600002F1140CC2F10C0201FA0CF021FA02F176
:104170000CE002F11402D8BFC2F1200C01FA02F1E6
:1041800020FA0CFCDCBF41EA0C019040E41AA2BF0B
:1041900001EB0451294330BD6FEA04041F3C1CDAD3
:1041A0000C340EDC04F11404C4F1200220FA04F0F3
:1041B00001FA02F340EA030021FA04F345EA03019D
:1041C00030BDC4F10C04C4F1200220FA02F001FA5F
:1041D00004F340EA0300294630BD21FA04F02946E1
:1041E00030BD94F0000F83F4801306BF81F480117A
:1041F0000134013D4EE77FEA645C18BF7FEA655CED
:1042000029D094EA050F08BF90EA020F05D054EABE
:10421000000C04BF1946104630BD91EA030F1EBFC3
:104220000021002030BD5FEA545C05D140004941C7
:1042300028BF41F0004130BD14F580043CBF01F5BA
:10424000801130BD01F0004545F0FE4141F47001A0
:104250004FF0000030BD7FEA645C1ABF194610467B
:104260007FEA655C1CBF0B46024650EA013406BF7C
:1042700052EA033591EA030F41F4002130BD00BF3B
:1042800090F0000F04BF0021704730B54FF48064F8
:1042900004F132044FF000054FF0000150E700BF79
:1042A00090F0000F04BF0021704730B54FF48064D8
:1042B00004F1320410F0004548BF40424FF00001C5
:1042C0003EE700BF42004FEAE2014FEA31014FEA08
:1042D00002701FBF12F07F4393F07F4F81F0605157
:1042E000704792F0000F14BF93F07F4F704730B5C6
:1042F0004FF4607401F0004521F0004120E700BF59
:1043000050EA010208BF704730B54FF000050AE0DF
:1043100050EA010208BF704730B511F0004502D5E0
:10432000404261EB41014FF4806404F132045FEAE2
:10433000915C3FF4DCAE4FF003025FEADC0C18BF87
:1043400003325FEADC0C18BF033202EBDC02C2F17D
:10435000200300FA03FC20FA02F001FA03FE40EA0F
:104360000E0021FA02F11444C1E600BF70B54FF00F
:10437000FF0C4CF4E06C1CEA11541DBF1CEA1355F1
:1043800094EA0C0F95EA0C0F00F0DEF82C4481EA59
:10439000030621EA4C5123EA4C5350EA013518BF79
:1043A00052EA033541F4801143F4801338D0A0FB66
:1043B00002CE4FF00005E1FB02E506F00042E0FB13
:1043C00003E54FF00006E1FB03569CF0000F18BF19
:1043D0004EF0010EA4F1FF04B6F5007F64F54074C1
:1043E00004D25FEA4E0E6D4146EB060642EAC62154
:1043F00041EA55514FEAC52040EA5E504FEACE2EC1
:10440000B4F1FD0C88BFBCF5E06F1ED8BEF1004FC3
:1044100008BF5FEA500E50F1000041EB045170BD3F
:1044200006F0004646EA010140EA020081EA030183
:10443000B4EB5C04C2BFD4EB0C0541EA045170BD7F
:1044400041F480114FF0000E013C00F3AB8014F1F9
:10445000360FDEBF002001F0004170BDC4F1000442
:10446000203C35DA0C341BDC04F11404C4F12005C3
:1044700000FA05F320FA04F001FA05F240EA02001E
:1044800001F0004221F0004110EBD37021FA04F654
:1044900042EB06015EEA430E08BF20EAD37070BD0E
:1044A000C4F10C04C4F1200500FA04F320FA05F06D
:1044B00001FA04F240EA020001F0004110EBD3706F
:1044C00041F100015EEA430E08BF20EAD37070BDDF
:1044D000C4F1200500FA05F24EEA020E20FA04F3B8
:1044E00001FA05F243EA020321FA04F001F0004167
:1044F00021FA04F220EA020000EBD3705EEA430ED8
:1045000008BF20EAD37070BD94F0000F0FD101F006
:104510000046400041EB010111F4801F08BF013C3F
:10452000F7D041EA060195F0000F18BF704703F07D
:104530000046520043EB030313F4801F08BF013D04
:10454000F7D043EA0603704794EA0C0F0CEA1355C0
:1045500018BF95EA0C0F0CD050EA410618BF52EA7A
:104560004306D1D181EA030101F000414FF0000080
:1045700070BD50EA410606BF1046194652EA43068E
:1045800019D094EA0C0F02D150EA013613D195EA02
:104590000C0F05D152EA03361CBF104619460AD14A
:1045A00081EA030101F0004141F0FE4141F4700154
:1045B0004FF0000070BD41F0FE4141F4780170BD44
:1045C00070B54FF0FF0C4CF4E06C1CEA11541DBFA9
:1045D0001CEA135594EA0C0F95EA0C0F00F0A7F8AB
:1045E000A4EB050481EA030E52EA03354FEA0131D8
:1045F00000F088804FEA03334FF0805545EA1313EB
:1046000043EA12634FEA022245EA111545EA1065B2
:104610004FEA00260EF000419D4208BF964244F149
:10462000FD0404F5407402D25B084FEA3202B61A68
:1046300065EB03055B084FEA32024FF480104FF43C
:10464000002CB6EB020E75EB030E22BFB61A7546B0
:1046500040EA0C005B084FEA3202B6EB020E75EB43
:10466000030E22BFB61A754640EA5C005B084FEAAB
:104670003202B6EB020E75EB030E22BFB61A754678
:1046800040EA9C005B084FEA3202B6EB020E75EB83
:10469000030E22BFB61A754640EADC0055EA060E44
:1046A00018D04FEA051545EA16754FEA06164FEA87
:1046B000C30343EA52734FEAC2025FEA1C1CC0D133
:1046C00011F4801F0BD141EA00014FF000004FF0C0
:1046D000004CB6E711F4801F04BF01430020B4F181
:1046E000FD0C88BFBCF5E06F3FF6AFAEB5EB030C39
:1046F00004BFB6EB020C5FEA500C50F1000041EB36
:10470000045170BD0EF0004E4EEA113114EB5C0402
:10471000C2BFD4EB0C0541EA045170BD41F48011D5
:104720004FF0000E013C90E645EA060E8DE60CEADD
:10473000135594EA0C0F08BF95EA0C0F3FF43BAFFA
:1047400094EA0C0F0AD150EA01347FF434AF95EAB1
:104750000C0F7FF425AF104619462CE795EA0C0F95
:1047600006D152EA03353FF4FDAE1046194622E762
:1047700050EA410618BF52EA43067FF4C5AE50EA3C
:1047800041047FF40DAF52EA43057FF4EBAE12E72C
:104790004FF0FF3C06E000BF4FF0010C02E000BF0D
:1047A0004FF0010C4DF804CD4FEA410C7FEA6C5CF0
:1047B0004FEA430C18BF7FEA6C5C1BD001B050EA93
:1047C000410C0CBF52EA430C91EA030F02BF90EA7E
:1047D000020F0020704710F1000F91EA030F58BF3D
:1047E000994208BF90422CBFD8176FEAE37040F09F
:1047F000010070474FEA410C7FEA6C5C02D150EA3D
:10480000013C07D14FEA430C7FEA6C5CD6D152EAF7
:10481000033CD3D05DF8040B704700BF84461046BC
:1048200062468C461946634600E000BF01B5FFF7BB
:10483000B7FF002848BF10F1000F01BD4DF808ED8B
:10484000FFF7F4FF0CBF012000205DF808FB00BF5C
:104850004DF808EDFFF7EAFF34BF012000205DF8B6
:1048600008FB00BF4DF808EDFFF7E0FF94BF012003
:1048700000205DF808FB00BF4DF808EDFFF7CEFF04
:1048800094BF012000205DF808FB00BF4DF808ED43
:10489000FFF7C4FF34BF012000205DF808FB00BF14
:1048A0004FEA410212F5001215D211D56FF4787358
:1048B000B3EB625212D94FEAC12343F0004343EAFB
:1048C000505311F0004F23FA02F018BF40427047D6
:1048D0004FF00000704750EA013005D111F0004060
:1048E00008BF6FF0004070474FF00000704700BFF6
:1048F00053B94AB9002908BF00281CBF4FF0FF3147
:104900004FF0FF3000F03CB882B0EC462DE900508B
:1049100000F01EF8DDF804E002B00CBC704700BFE8
:104920002DE9F041069C154606460F46984600F0D4
:1049300029F805FB01F300FB0838A5FB0023B21A98
:10494000434467EB0303C4E90023BDE8F08100BFE3
:104950002DE9F041069C904606460F461D4600F0A4
:104960005FF900FB05F5A0FB082308FB0155B21A0F
:104970002B4467EB0303C4E90023BDE8F08100BFCB
:10498000704700BF00292DE9F043C0F2A680002641
:10499000002BC0F29C80884694469E4615460446ED
:1049A0000F46002B3DD18A4259D9B2FA82F33BB16E
:1049B000C3F120029F4020FA02F29D4017439C4021
:1049C000290C220CB7FBF1FEA8B201FB1E7742EACC
:1049D000074700FB0EF3BB420AD97F190EF1FF32E5
:1049E00080F00581BB4240F20281AEF1020E2F44FD
:1049F000FF1AA4B2B7FBF1F301FB137744EA0747B0
:104A000000FB03F0B84208D97F1903F1FF3280F0B0
:104A1000F080B84240F2ED80023B43EA0E430022B0
:104A200003E08B420FD900221346341C18BF012427
:104A300060424FF0000565EB4501584051400019B8
:104A40006941BDE8F083B3FA83F2002A40F0868022
:104A50008B4202D3844500F2DB800123E5E712B9E3
:104A60000123B3FBF2F5B5FA85F000283BD1781BA2
:104A70004FEA154E1FFA85FC0122B0FBFEF8210C0F
:104A80000EFB180741EA07470CFB08F3BB4207D9A6
:104A90007F1908F1FF3102D2BB4200F2BD80884687
:104AA000FF1AA4B2B7FBFEF30EFB137744EA0747E5
:104AB0000CFB03FCBC4507D97F1903F1FF3102D27F
:104AC000BC4500F2A7800B4643EA0843ADE75242DB
:104AD0006FEA060663EB43035DE7404261EB410189
:104AE0004FF0FF3654E7C0F1200224FA02F107FA32
:104AF00000F385404FEA154ED7401943B7FBFEF24D
:104B00000B0C0EFB12771FFA85FC43EA07430CFBE4
:104B100002F79F4204FA00F407D95B1902F1FF3053
:104B200074D29F4272D9023A2B44DF1B89B2B7FB81
:104B3000FEF80EFB187341EA03430CFB08F79F4293
:104B400008D95B1908F1FF315CD29F425AD9A8F10C
:104B500002082B44D81B48EA02428EE7C2F1200328
:104B60002CFA03F10EFA02FE20FA03F741EA0E0EC8
:104B700008FA02F028FA03F14FEA1E453843B1FB68
:104B8000F5F8030C05FB18111FFA8EF743EA0141F3
:104B900007FB08F38B420CFA02FC09D911EB0E015A
:104BA00008F1FF3930D28B422ED9A8F102087144A6
:104BB000C91A80B2B1FBF5F305FB131140EA0141BC
:104BC00007FB03F78F4208D911EB0E0103F1FF3009
:104BD00016D28F4214D9023B714443EA0843C91BE1
:104BE000A3FB0C89494509D305D000221DE7964651
:104BF000FEE6134611E794404445F6D2013BF4E744
:104C00000346EAE78846A5E7C846D1E702468CE7AF
:104C100013460AE7023B57E7A8F102082F443FE793
:104C20002DE9F041002B44D18A42154604464FD964
:104C3000B2FA82F70E464FB1C7F12003B94020FA0D
:104C400003F602FA07F50E4300FA07F44FEA154E91
:104C5000230CB6FBFEF0AFB20EFB106143EA01433A
:104C600007FB00F1994209D95B1900F1FF3280F08E
:104C7000EC80994240F2E98002382B445A1AA4B2DF
:104C8000B2FBFEF30EFB132244EA024207FB03F7DA
:104C9000974208D9521903F1FF3180F0D88097422A
:104CA00040F2D580023B43EA004000263146BDE891
:104CB000F0818B4247D8B3FA83F6002E48D18B425D
:104CC00002D3824200F2CD8001203146BDE8F0815E
:104CD00012B90125B5FBF2F5B5FA85F8B8F1000F68
:104CE00077D14A1B4FEA154EAFB20126B2FBFEF058
:104CF000230C0EFB102143EA014107FB00F38B421A
:104D000007D9491900F1FF3202D28B4200F2BA8072
:104D10001046C91AA4B2B1FBFEF30EFB131144EA0C
:104D2000014407FB03F7A74208D9641903F1FF32D6
:104D300080F08F80A74240F28C80023B43EA004023
:104D40003146BDE8F081002630463146BDE8F081AD
:104D5000C6F1200422FA04F5B3402B4320FA04FCE8
:104D600001FA06F721FA04F54FEA134E4CEA070759
:104D7000B5FBFEF8390C0EFB18551FFA83FC41EA0F
:104D800005450CFB08F1A94202FA06F204D9ED1818
:104D900008F1FF3467D3A0466D1ABFB2B5FBFEF42D
:104DA0000EFB145547EA05410CFB04FC8C4504D965
:104DB000C91804F1FF355CD32C4644EA0844CCEB17
:104DC0000101A4FB0223994248D344D02046002687
:104DD0006CE7C8F1200401FA08F305FA08F520FA97
:104DE00004F7E1404FEA154E1F43B1FBFEF63A0CC3
:104DF0000EFB16111FFA85FC42EA01430CFB06F27A
:104E00009A4200FA08F407D95B1906F1FF3137D24C
:104E10009A4235D9023E2B449B1ABFB2B3FBFEF037
:104E20000EFB103347EA03430CFB00F1994207D90C
:104E30005B1900F1FF3221D299421FD902382B446D
:104E40005A1A40EA0646674650E7104616E70B46F0
:104E500029E7134672E7B0409042B7D2601E0026A1
:104E600024E7304622E7A94295D9A8F102081D445B
:104E700092E78C45A0D9023C19449EE71046DFE733
:104E80000E46C9E70238294443E700BFAA4EAB48A3
:104E9000AB49AC4DAC4BAD4C4FF4807280B57261F8
:104EA0004669DFF8B8E2AA4F46F0200646618668F8
:104EB00046F020068660CEF81020486940F01000C9
:104EC0004861486840F0100048602A64596941F41C
:104ED00080315961596841F4803159606A645A6976
:104EE00042F400325A615A6842F400325A608AB081
:104EF000FBF716FFFCF732F8FBF77EFB3A683B68DE
:104F0000A26003F5FA630121E360217435E094F8AF
:104F100064208E4B42B393F865202ABB93F864203B
:104F200001218A4283F8651000F09D8193F8642086
:104F3000022A00F09D8193F86420032A00F09D81ED
:104F400093F86420042A00F09D8193F86420052AD8
:104F500000F0C48193F86420062A00F0C48193F81D
:104F60006430072B00F0C48194F86430774A03F072
:104F7000FF01002B00F03D8192683B68744D9B1A45
:104F8000C82BC4D92B68A360FBF71CFC227C6F4E96
:104F9000002A00F0E5802A68F3689B1AB3F5FA6FDF
:104FA00080F05E81737C002B00F07181737C012B9B
:104FB00000F0D781737C022B00F0F581737C032B0A
:104FC00000F01082737C042B00F01B82737C052B95
:104FD00000F024825D4D002105F12400402200F004
:104FE0003BFAA37C2679002B00F0F38095F8203063
:104FF000283BA27C57495848002A14BF4325462520
:1050000032460095042600254FF0160800F094FA69
:105010002A4630463346CDF808800095039504951E
:10502000059506950795019640F27B51FBF75EFBCF
:105030004FF0100994F82410CDF810804FF01B0C9D
:1050400002234FF0010E8DE8001230462A460293EB
:105050000593CDF80CE00791069540F29251082394
:10506000FBF744FB94F825A094F8269094F8278049
:1050700094F828C094F829E094F82A1094F82B307A
:10508000CDF804A02122009230462A46CDF808909F
:10509000CDF80C80CDF810C0CDF814E00691079340
:1050A00040F292510823FBF721FB94F82CA094F8CE
:1050B0002D9094F82E8094F82FC094F830E094F856
:1050C000311094F83230CDF804A0222200923046FC
:1050D0002A46CDF80890CDF80C80CDF810C0CDF858
:1050E00014E00691079340F292510823FBF7FEFA71
:1050F00094F8381094F8393094F833A094F8349038
:1051000094F8358094F836C094F837E0069123225D
:105110000092079330462A46CDF804A0CDF80890B7
:10512000CDF80C80CDF810C0CDF814E040F29251CB
:105130000823FBF7DBFAEAE600B0044080F00F40FA
:10514000C0F00F4000A0044040F00F40008AFF1F55
:105150006C8AFF1FC89E0000248AFF1F00C0044005
:10516000737C002B48D1B37CF07C283853B9FEF710
:1051700047FBB149FEF798FB4FF08441FEF78CFAEC
:10518000FEF7E2FCA37C80B2002B00B214BF0C231C
:105190000F2300220121FBF743F9A84BA27C187DC5
:1051A000283852B9FEF72CFBA349FEF77DFB4FF0E0
:1051B0008441FEF771FAFEF7C7FC80B2A37C0021A0
:1051C0008B4200B214BF0C230F230A46FBF728F9C9
:1051D00000E795F820002838FEF712FB9649FEF705
:1051E00063FB4FF08441FEF757FAFEF7ADFC034630
:1051F000FFE682F86510BFE6737C012B53D0737C09
:10520000022B00F09B80737C032B00F0B780737C33
:10521000042B72D0737C052B7FF4DCAEB37C96F844
:105220002000283853B9FEF7EBFA8349FEF73CFB20
:105230004FF08441FEF730FAFEF786FCA37C80B283
:10524000002B14BF0C230F2300B201210022FBF717
:10525000E7F800210A460B462079FBF7E1F8B9E6AA
:1052600000233374B6E69D202821FBF7E1F97BE6A5
:105270009D20A821FBF7DCF976E69D20D021FBF7E5
:10528000D7F971E69D205021FBF7D2F96CE6A320F7
:10529000C623C7220093019002900392CF21FF23DF
:1052A000FBF780F996E6B37C707D002B3DD0FEF7CE
:1052B000A7FA4FF08141FEF7F7FAFEF745FC80B2FE
:1052C00000B2022200230121FBF7AAF85B4BA27C6B
:1052D000987D2838002A3FF465AF6EE79D20C821ED
:1052E000FBF7A6F940E69D204921FBF7A1F93BE633
:1052F0009D207021FBF79CF936E6B37CB08B002B28
:1053000061D0283880B2A37C002B00B214BF0C23DC
:105310000F2300220121FBF783F8A27C474BD88B97
:10532000002A4DD0283880B248E7FEF769FA444990
:10533000FEF7BAFAFEF708FC80B2C1E7F07D13462B
:10534000012140B2FBF76CF8308B00B200284FF01F
:105350000001B8BF0F3000110A460B46FBF760F89A
:1053600038E6F820AF218822AB238DE80F00A32078
:10537000CF21C7228C23FBF715F92BE6708B0992FE
:1053800080B2FEF73DFA2F49FEF78EFA2E49FEF75E
:105390008BFAFEF7D9FB099A00B211461346022296
:1053A000FBF73EF816E69220F8218622AF238DE81F
:1053B0000F0091208821D522FF23FBF7F3F809E69F
:1053C00000B22838EEE600B22838FEF719FA1A497A
:1053D000FEF76AFA4FF08441FEF75EF9FEF7B4FB80
:1053E00080B290E7FF208E25E3218622C72301911A
:1053F000029203930095014602460346FBF7D2F85A
:10540000E8E5CF20A1218622FF238DE80F00A3200D
:10541000E321F8229223FBF7C5F8DBE590208622F2
:105420008821AF238DE8050003930291CF20F82255
:10543000FF23FBF7B7F8CDE56666E63F008AFF1F5E
:105440009A99B940C9C8C83E00002041014B18686C
:10545000704700BF1085FF1F70B4840746D0541EEC
:10546000002A41D0CDB2034602E0621EE4B31446E6
:1054700003F8015B9A07F8D1032C2ED9CDB245EA87
:1054800005250F2C45EA054519D903F110022646DA
:10549000103E0F2E42F8105C42F80C5C42F8085C9B
:1054A00042F8045C02F11002F2D8A4F1100222F0DA
:1054B0000F0204F00F041032032C13440DD91E46C2
:1054C0002246043A032A46F8045BFAD8221F22F047
:1054D00003020432134404F003042CB1C9B21C4487
:1054E00003F8011BA342FBD170BC7047144603466E
:1054F000C2E700BF0CB4F0B59DB022AC0E4654F824
:10550000042B029123464FF4027E6FF000454FF6C4
:10551000FF7702A906960194ADF814E0049507956B
:10552000ADF8167000F02EF8029B00221A701DB024
:10553000BDE8F04002B070470EB4F0B59CB021ABAE
:105540000F4953F8042B019305466FF00044086897
:1055500002954FF402774FF6FF7602A90695ADF853
:10556000147004940794ADF8166000F00BF8029BD9
:1055700000221A701CB0BDE8F04003B0704700BFB5
:105580001085FF1F2DE9F04FC1B089460A920E9396
:10559000089002F055FA03681793184603F0DAF9F9
:1055A000B9F80C3018901A0604D5D9F81030002B31
:1055B00001F08C80002330AF13932593249316932E
:1055C00019930B932397149315933C464E460A9DCB
:1055D0002B78002B00F0A980252B02D1A5E0252BEC
:1055E00003D015F8013F002BF9D10A9BEB1A73B1D8
:1055F000249A25990A98206001321944072A636089
:105600002591249272DC08340B9A1A440B922B7861
:10561000002B00F0B5870023691C6D788DF86F3082
:105620001A460C9307934FF0FF3A4B1CA5F120014B
:10563000582900F2D983DFE811F07002D703D703AD
:105640007403D703D703D703D703D703D703F002D5
:105650000D02D703F4011102D7037B03BA02BA0289
:10566000BA02BA02BA02BA02BA02BA02BA02D7033C
:10567000D703D703D703D703D703D703D703D7035A
:10568000D703C9028B03D7038B03D703D703D703F1
:10569000D7036D03D703D7030503D703D703D70376
:1056A000D703D7032303D703D7033D03D703D70378
:1056B000D703D703D703D703D703D703D703D7031A
:1056C00058032C028B038B038B03FE022C02D7039F
:1056D000D703E602D7037E02FB01C0037702D7039C
:1056E0009202D7037A00D703D7034A020898079398
:1056F000314623AA03F05CF950B93C46079B83E787
:105700000898314623AA03F053F9002800F0858158
:10571000B146B9F80C3013F0400F0B9B18BF4FF097
:10572000FF33184641B0BDE8F08F0A9D6FE70A933A
:10573000079B980640F1AD820E9B03F1070929F003
:10574000070303F10802D3E900890E9201234FF009
:10575000000C8DF86FC0CDF844A0BAF1000F03DB48
:10576000079A22F08002079258EA090240F04C831F
:10577000BAF1000F00F05184012B00F04F83022B8F
:1057800000F0908439464FEAD80242EA49724FEA63
:10579000D90008F0070381469046303358EA0902E1
:1057A00001F8013DEFD1079A1091D20700F144852D
:1057B0007B1A0D930D9A92455346B8BF1346099331
:1057C00000231293BCF1000F02D0099B013309930F
:1057D000079B13F002030F9302D0099B0233099336
:1057E000079B13F0840940F00C830C9B099AC2EBD1
:1057F0000308B8F1000F40F30483B8F1100F2599A6
:10580000249ADFF844A529DD53464FF0100BC24619
:10581000A8461D4606E0AAF1100ABAF1100F04F1DD
:10582000080417DD01321031072A2591249284E8FB
:105830002008F0DD0898314623AA03F0B9F80028C3
:105840007FF466AFAAF1100ABAF1100F2599249AD5
:105850003C46E7DC2B464546D0469A46013208EBEB
:10586000010B072ACDF894B02492C4F800A0C4F824
:10587000048000F37B849DF86FC00834BCF1000FF6
:105880000FD0249B01330BF1010B0DF16F010122AD
:10589000072BCDF894B0249384E8060000F3DA8354
:1058A00008340F9B73B1249B01330BF1020B1CA92D
:1058B0000222072BCDF894B0249384E8060000F36D
:1058C000D5830834B9F1800F00F01183119B0D9A34
:1058D000C2EB030ABAF1000F3CDDBAF1100F249AB3
:1058E000DFF868942BDD49465B46A9464FF0100867
:1058F000DDF820B00D4606E0AAF1100ABAF1100F4B
:1059000004F1080417DD01321033072A259324928D
:1059100084E82001F0DD5846314623AA03F048F818
:1059200000287FF4F5AEAAF1100ABAF1100F259BFA
:10593000249A3C46E7DC9B462B464D46994601326D
:10594000D344072ACDF894B0249284E8000600F3EB
:1059500075830834079BD90500F16C82249B0D994F
:10596000109A226001338B44072BCDF894B061600C
:10597000249300F346830834079B5A0741D50C9BB8
:10598000099A9D1A002D3CDD102D249BDFF8B8A349
:1059900023DD4FF010085A46DDF8209004E0103D5A
:1059A000102D04F1080417DD01331032072B259266
:1059B0002493C4F800A0C4F80480F0DD48463146C2
:1059C00023AA02F0F5FF00287FF4A2AE103D102DAF
:1059D000259A249B3C46E7DC93460133AB44072BD6
:1059E000CDF894B02493C4F800A0656009DD089850
:1059F000314623AA02F0DCFF00287FF489AEDDF8EF
:105A000094B00B9B099A0C998A42ACBF9B185B1807
:105A10000B93BBF1000F7FF473AE002324933C463D
:105A2000D5E5194607981D7840F004000790FCE57D
:105A30000A93079B13F0200300F00E810E9B03F1E5
:105A4000070929F0070303F10802D3E900890E9240
:105A500000237CE61D7819462B22E6E51D782A2DC9
:105A600003F1010100F0AD87A5F1300009280B46D4
:105A70004FF0000A3FF6DAAD13F8015B0AEB8A0A31
:105A800000EB4A0AA5F130000928F5D94AEAEA7A7A
:105A9000CCE50A93079B8DF86F209B0640F1A1800F
:105AA0000E9B03F1070929F00709D9E9002309F141
:105AB00008010E9190469946002A73F10003C0F246
:105AC0000B849DF86FC0CDF844A0012345E60A93EE
:105AD0009B4B1693079B8DF86F209B0640F1F3803C
:105AE0000E9B03F1070929F00703D3E9008903F1AD
:105AF00008020E92079BD90740F1F58058EA090386
:105B000000F0F180079A8DF87150302342F00202C4
:105B10008DF870300792022319E61D781946002A85
:105B20007FF483AD202280E5079941F020010791A1
:105B30001D78194679E50A93079B8DF86F209A0620
:105B400040F1A1840B990E9A4FEAE1791368084657
:105B50008846043249460E92C3E9000137E50E9AA1
:105B60000A93136810934FF0000B8DF86FB002F199
:105B70000409002B00F03B86BAF1000F1098C0F228
:105B8000E9855946524602F0FDF9002800F06C867E
:105B9000109BCDF844B0C31A0D93CDF8389023EA8A
:105BA000E3730993CDF848B09DF86FC00AE6A5F1FC
:105BB0003000002113F8015B01EB810100EB410192
:105BC000A5F130000928F5D90C912FE50A93079B20
:105BD0008DF86F2043F010030793079B9B063FF55A
:105BE0005FAF079BD80600F16883079B590640F119
:105BF00064830E99B1F9008004314FEAE879424696
:105C00004B460E9158E71D7807996C2D00F0CB8418
:105C100041F010010791194607E50E9D29680C9186
:105C200008460028294601F10401C0F2B5840E910E
:105C30001D781946F9E4079941F0400107911D7854
:105C40001946F2E40A93079B43F010030793079B5E
:105C500013F020037FF4F2AE079A12F0100240F026
:105C60001983079B13F0400300F014830E99134629
:105C70000A460432B1F800800E924FF0000966E542
:105C80000A93079B43F010030793079B98063FF581
:105C900053AD079BD90600F10683079B5A0640F1D6
:105CA00002830E9AB2F8008004324FF000090123FB
:105CB0000E924CE50A93234B1693079B8DF86F20A9
:105CC0009B063FF50DAF079BD80640F1CD830E9A9A
:105CD00013461B689846079B0432D9070E924FF073
:105CE00000093FF50BAF022331E50E990A930A68CC
:105CF0008DF898200023012204319C4609920E91D0
:105D00008DF86F3026ABCDF844C0CDF848C00D9269
:105D100010935DE5079941F0080107911D78194638
:105D200083E4079941F0010107911D7819467CE44D
